:040000000128FB2FA9
:1004360020001F15080016302100970008008F3095
:1004460025009300033092002B30910008008F3076
:1004560025009700033096002B3095000800803069
:100466002C009900CA309800C030970008008030F0
:100476002C009C00CA309B00C0309A0008006230F5
:10048600320099009B019D0107309F009E010800E4
:10049600033020009F00CA309E009D0191101B2250
:1004A60008002000911E542A23009D1C5C2A9D13DF
:1004B6009D1719080800FC2242221E223A222222F7
:1004C6002A224B22322268220800083023009F008D
:1004D60090309D0024309E00CF309B009C01080088
:1004E60020006308E5006208E400E536E40CE53622
:1004F600E40C64082C009800200062080339E4002C
:100506000530E435FF3E031D842A64352C00970030
:10051600080020006308E5006208E400E536E40C04
:10052600E536E40C64082C009B00200062080339C1
:10053600E4000530E435FF3E031D9D2A64352C009A
:100546009A000800FB007B082000A000A101A20180
:100556002008F0002108F1002208F2008E30A300E6
:100566002308F300F40171237008F8007108F900FC
:100576007208FA000800FF302000E2050330E305A8
:100586002500131ED42A06302000E235E30D890B20
:10059600C82A630825009200200062082500910001
:1005A600080020006308250092002000620825004C
:1005B60091000800FF302000E2050330E305250026
:1005C600171EF32A06302000E235E30D890BE72AD1
:1005D60063082500960020006208250095000800A3
:1005E600200063082500960020006208250095007B
:1005F600080022008C01103021008C0027302300D7
:100606008C0024008C0125008C0100308B1B0130EE
:10061600F0008B1355303C008F00AA308F000F106E
:100626003D001108E0390D3891003C002408E039FE
:100636000438A4003D001008E0390C389000120878
:10064600E039023892001508E03903389500553034
:100656003C008F00AA308F000F14701C342B8B17B0
:1006660008008B130800FC007C08A52278082000EF
:10067600A7007908A8007A08A9000030A400343041
:10068600A5004330A6005C2420002408B7002508F6
:10069600B8002608B9000030B4007030B500433009
:1006A600B600042520003408C7003508C8003608FF
:1006B600C9000030C4007030C5004230C600B725FE
:1006C60020004408D1004508D2004608D300D523AF
:1006D60020005208E0005108DF00080073080319E3
:1006E600792B720871047004031D8A2B0030F00008
:1006F6000030F1000030F20008000130F500750806
:10070600F3070130F236F10CF00C890B852BFE3025
:1007160072050319A32B802B0130F5007508F3072A
:100726000130F007003003180130F10700300318DC
:100736000130F2070130F236F10CF00C890B9E2BDA
:10074600FF3072050319B02B8F2B0130F3020130F5
:10075600F035F10DF20D890BAB2BF11BB62B0230E8
:1007660073020318A82B7318BE2BFF30F0057F30D9
:10077600F105FF30F2050310F30C7308F500F601DE
:10078600F7011030F535F60DF70D890BC52B7508F9
:10079600F0047608F1047708F204740803190800D7
:1007A600F217080020005108D5005208D600530859
:1007B600D7000310560D570DD8005808DE005E0806
:1007C600031DEE2B0030D4000030D3000030D200E1
:1007D6000030D10008005108D5005208D600530851
:1007E600D7001730D736D60CD50C890BF52B550804
:1007F600D8005808D900D217FF30D105FF30D205EE
:100806000030D3055108DA005208DB005308DC003B
:10081600DD018E30DE02DE1F2C2C5E08803A8F3E14
:1008260003181E2C0030D4000030D3000030D20054
:100836000030D10008000130DD36DC0CDB0CDA0CB0
:10084600890B1F2C0130D5005508DE070319452CEE
:100856001E2C18305E02031C422C0030D4000030DF
:10086600D3000030D2000030D10008000130DA3564
:10087600DB0DDC0DDD0D890B3A2C0130DE025E0846
:10088600031D392C59080319532CDA09DB09DC0935
:10089600DD09DA0A0319DB0A0319DC0A0319DD0A82
:1008A6005D08D4005C08D3005B08D2005A08D1006A
:1008B600080020002708AA002808AB002908AC0079
:1008C60003102B0D2C0DAD002D08B2003208031DB0
:1008D600732C0030A4000030A5000030A6000800EC
:1008E6002408AA002508AB002608AC0003102B0D2F
:1008F6002C0DAD002D08B3003308031D892C0030E4
:10090600A4000030A5000030A60008000030AF00AB
:100916000030B0000030B10089303307AA002A0841
:10092600B2022708AA002808AB002908AC0010303C
:10093600AC36AB0CAA0C890B9B2C2A08AD002D08F3
:10094600B3002408AA002508AB002608AC00103026
:10095600AC36AB0CAA0C890BAB2C2A08AD002D08C3
:10096600B3068030AA002A08B305A817FF30A705EA
:10097600FF30A8050030A905A517FF30A405FF30F4
:10098600A5050030A6051830AA002A08AE000130D9
:10099600AF35B00DB10D890BCB2C26082902031DEE
:1009A600DA2C25082802031DDA2C24082702031C4A
:1009B600E32C2408A7022508A83B2608A93B2F14E8
:1009C6000130A735A80DA90D890BE42C0130AE0224
:1009D600031DCA2C2F08F0003008F1003108F20080
:1009E6003208AA002A08F3003308AB002B08F400EB
:1009F600712370082000A4007108A5007208A600E3
:100A0600080020003408BA003508BB003608BC00D0
:100A160003103B0D3C0DBD003D08BE003E08031D06
:100A26001B2D0030B4000030B5000030B6000800C1
:100A36003708BA003808BB003908BC0003103B0D64
:100A46003C0DBD003D08C3004308031D312D003099
:100A5600B4000030B5000030B600080043087B3E05
:100A6600BA003A08BE073408BA003508BB00360893
:100A7600BC001030BC36BB0CBA0C890B3D2D3A08B5
:100A8600BD003D08C3003708BA003808BB00390866
:100A9600BC001030BC36BB0CBA0C890B4D2D3A0885
:100AA600BD003D08C3068030BA003A08C305B51735
:100AB600B817FF30B705FF30B8050030B90500306C
:100AC600BF000030C0000030C1000730BA003A084D
:100AD600C200341C742D3708BF073808C03D3908DA
:100AE600C13D0130B636B50CB40C890B752D0130FD
:100AF600B735B80DB90D890B7B2D0130C202031D28
:100B06006C2D0930BA003A08C200341C902D370803
:100B1600BF073808C03D3908C13D0130B636B50CAF
:100B2600B40C890B912D0130C136C00CBF0C890B5A
:100B3600972D0130C202031D882D3F08F0004008A2
:100B4600F1004108F2003E08BA003A08F3004308F3
:100B5600BB003B08F400712370082000B400710844
:100B6600B5007208B600080020004408CA0045080F
:100B7600CB004608CC0003104B0D4C0DCD004D08A4
:100B8600D0004708CA004808CB004908CC0003102B
:100B96004B0D4C0DCD004D08CF0050080319DF2D2D
:100BA6004F0850020318E62D5003FF3A4F07CA00BC
:100BB60019304A02031CE62D4708C4004808C50040
:100BC6004908C60008004F080319080050084F02DC
:100BD6000318F52D4F03FF3A5007CA0019304A0291
:100BE600031808000630CA004A08CE00C61BCE17F6
:100BF600C91B4E17C517FF30C405FF30C5050030A9
:100C0600C605C817FF30C705FF30C8050030C9053F
:100C16004F0850020318312E0130C735C80DC90DD3
:100C2600890B102E0130CF024F08500603192C2EC7
:100C36000130CE024E08073903192C2E0F2E013033
:100C4600C636C50CC40C890B232E0130CA004A08CF
:100C5600D00750084F060319562E222E50084F0271
:100C66000318562E0130C435C50DC60D890B362E18
:100C76000130D0024F0850060319522E0130CE0221
:100C86004E0807390319522E352E0130C936C80CC5
:100C9600C70C890B492E0130CA004A08CF075008F5
:100CA6004F06031D482ECE1F682EFF30C406FF30A8
:100CB600C506FF30C6060130C407003003180130F0
:100CC600C507003003180130C6074E1F7A2EFF30C5
:100CD600C706FF30C806FF30C9060130C707003017
:100CE60003180130C807003003180130C907CE01C8
:100CF6004408C7074508C83D4608C93DC91F952E83
:100D0600FF30C706FF30C806FF30C9060130C707E7
:100D1600003003180130C807003003180130C90736
:100D2600CE01CE0A4708F0004808F1004908F20053
:100D36005008CA004A08F3004E08CB004B08F400DE
:100D4600712370082000C4007108C5007208C6002F
:100D560008002000E601E7016430FD007D08E80098
:100D66005530FD007D08E9005330FD007D08EA009E
:100D76007330FD007D08EB005E22200068083623F4
:100D860020006008E3005F08E2008C22200069086A
:100D9600362320006008E3005F08E200732220008B
:100DA6006A08362320006008E3005F08E200DD22BF
:100DB60020006B08362320006008E3005F08E2008D
:100DC600BE222000911AE02FE42E0230FD007D089D
:100DD600E8076808362320006008E3005F08E200A1
:100DE6008C222000911EFB2E5422533A0319E42E26
:100DF6003430FD00F230890BFE2EFD0BFE2EB33093
:100E0600200068020318E42EE82E0230E802680883
:100E1600362320006008E3005F08E2008C222000F1
:100E2600911E192F5422533A0319E42E3430FD0033
:100E3600F230890B1C2FFD0B1C2F0230200068029C
:100E4600031CE42E082F0230E9026908362320002D
:100E56006008E3005F08E20073222000911E372F2E
:100E66005422533A0319E42E3430FD00F230890B34
:100E76003A2FFD0B3A2F023020006902031CE42EA4
:100E8600262F0230FD007D08E90769083623200079
:100E96006008E3005F08E20073222000911E572FCE
:100EA6005422533A0319E42E3430FD00F230890BF4
:100EB6005A2FFD0B5A2FB330200069020318E42E77
:100EC600442F0230EA026A08362320006008E30055
:100ED6005F08E200DD222000911E752F5422533A4E
:100EE6000319E42E3430FD00F230890B782FFD0B08
:100EF600782F023020006A02031CE42E642F023091
:100F0600FD007D08EA076A08362320006008E30032
:100F16005F08E200DD222000911E952F5422533AED
:100F26000319E42E3430FD00F230890B982FFD0BA7
:100F3600982FB33020006A020318E42E822F023065
:100F4600FD007D08EB076B08362320006008E300F0
:100F56005F08E200BE222000911EB52F5422533AAC
:100F66000319E42E3430FD00F230890BB82FFD0B47
:100F7600B82FB33020006B020318E42EA22F0230E4
:100F8600EB026B08362320006008E3005F08E200EE
:100F9600BE222000911ED32F5422533A0319E42E69
:100FA6003430FD00F230890BD62FFD0BD62F0230E0
:100FB60020006B02031CE42EC22F5422423A03196E
:100FC600202F013A03199C2F073A0319DA2F023A08
:100FD6000319022F0A3A03195E2F033A03197C2FCD
:100FE6001D3A03193E2F073A0319BC2FE42EE42EAF
:0A0FF6002000EC01ED012000AC2EFC
:020000040001F9
:08000E00ECFFF3FFFFDFFFFF31
:00000001FF
